{
  "_format": "hh-sol-artifact-1",
  "contractName": "LostAndFound",
  "sourceName": "contracts/LostAndFound.sol",
  "abi": [
    {
      "anonymous": false,
      "inputs": [
        {
          "indexed": true,
          "internalType": "uint256",
          "name": "itemId",
          "type": "uint256"
        },
        {
          "indexed": false,
          "internalType": "address",
          "name": "finder",
          "type": "address"
        }
      ],
      "name": "ItemFoundAndClaimed",
      "type": "event"
    },
    {
      "anonymous": false,
      "inputs": [
        {
          "indexed": true,
          "internalType": "uint256",
          "name": "itemId",
          "type": "uint256"
        },
        {
          "indexed": false,
          "internalType": "address",
          "name": "owner",
          "type": "address"
        },
        {
          "indexed": false,
          "internalType": "string",
          "name": "description",
          "type": "string"
        }
      ],
      "name": "ItemReported",
      "type": "event"
    },
    {
      "inputs": [
        {
          "internalType": "uint256",
          "name": "_itemId",
          "type": "uint256"
        }
      ],
      "name": "claimFoundItem",
      "outputs": [],
      "stateMutability": "nonpayable",
      "type": "function"
    },
    {
      "inputs": [
        {
          "internalType": "uint256",
          "name": "_itemId",
          "type": "uint256"
        }
      ],
      "name": "getItemDetails",
      "outputs": [
        {
          "components": [
            {
              "internalType": "address",
              "name": "owner",
              "type": "address"
            },
            {
              "internalType": "string",
              "name": "description",
              "type": "string"
            },
            {
              "internalType": "bool",
              "name": "isFound",
              "type": "bool"
            },
            {
              "internalType": "uint256",
              "name": "reward",
              "type": "uint256"
            }
          ],
          "internalType": "struct LostAndFound.Item",
          "name": "",
          "type": "tuple"
        }
      ],
      "stateMutability": "view",
      "type": "function"
    },
    {
      "inputs": [],
      "name": "itemCount",
      "outputs": [
        {
          "internalType": "uint256",
          "name": "",
          "type": "uint256"
        }
      ],
      "stateMutability": "view",
      "type": "function"
    },
    {
      "inputs": [
        {
          "internalType": "uint256",
          "name": "",
          "type": "uint256"
        }
      ],
      "name": "items",
      "outputs": [
        {
          "internalType": "address",
          "name": "owner",
          "type": "address"
        },
        {
          "internalType": "string",
          "name": "description",
          "type": "string"
        },
        {
          "internalType": "bool",
          "name": "isFound",
          "type": "bool"
        },
        {
          "internalType": "uint256",
          "name": "reward",
          "type": "uint256"
        }
      ],
      "stateMutability": "view",
      "type": "function"
    },
    {
      "inputs": [
        {
          "internalType": "string",
          "name": "_description",
          "type": "string"
        }
      ],
      "name": "reportLostItem",
      "outputs": [],
      "stateMutability": "payable",
      "type": "function"
    }
  ],
  "bytecode": "0x608060405234801561001057600080fd5b50610f49806100206000396000f3fe60806040526004361061004a5760003560e01c80636bfb0d011461004f57806373004ca01461007a578063bfb231d2146100b7578063c55882f8146100f7578063ffb157c714610113575b600080fd5b34801561005b57600080fd5b5061006461013c565b6040516100719190610661565b60405180910390f35b34801561008657600080fd5b506100a1600480360381019061009c91906106bc565b610142565b6040516100ae9190610847565b60405180910390f35b3480156100c357600080fd5b506100de60048036038101906100d991906106bc565b61027b565b6040516100ee94939291906108d1565b60405180910390f35b610111600480360381019061010c9190610a52565b610360565b005b34801561011f57600080fd5b5061013a600480360381019061013591906106bc565b61048f565b005b60015481565b61014a610608565b6000808381526020019081526020016000206040518060800160405290816000820160009054906101000a900473ffffffffffffffffffffffffffffffffffffffff1673ffffffffffffffffffffffffffffffffffffffff1673ffffffffffffffffffffffffffffffffffffffff1681526020016001820180546101cd90610aca565b80601f01602080910402602001604051908101604052809291908181526020018280546101f990610aca565b80156102465780601f1061021b57610100808354040283529160200191610246565b820191906000526020600020905b81548152906001019060200180831161022957829003601f168201915b505050505081526020016002820160009054906101000a900460ff161515151581526020016003820154815250509050919050565b60006020528060005260406000206000915090508060000160009054906101000a900473ffffffffffffffffffffffffffffffffffffffff16908060010180546102c490610aca565b80601f01602080910402602001604051908101604052809291908181526020018280546102f090610aca565b801561033d5780601f106103125761010080835404028352916020019161033d565b820191906000526020600020905b81548152906001019060200180831161032057829003601f168201915b5050505050908060020160009054906101000a900460ff16908060030154905084565b6001600081548092919061037390610b2a565b919050555060405180608001604052803373ffffffffffffffffffffffffffffffffffffffff16815260200182815260200160001515815260200134815250600080600154815260200190815260200160002060008201518160000160006101000a81548173ffffffffffffffffffffffffffffffffffffffff021916908373ffffffffffffffffffffffffffffffffffffffff16021790555060208201518160010190816104229190610d1e565b5060408201518160020160006101000a81548160ff021916908315150217905550606082015181600301559050506001547fa2f12a929555c86512df4afffcb9b220bd57ee1d2e90becdd57609dd56d8b6693383604051610484929190610df0565b60405180910390a250565b6000811180156104a157506001548111155b6104e0576040517f08c379a00000000000000000000000000000000000000000000000000000000081526004016104d790610e6c565b60405180910390fd5b60008082815260200190815260200160002060020160009054906101000a900460ff1615610543576040517f08c379a000000000000000000000000000000000000000000000000000000000815260040161053a90610ed8565b60405180910390fd5b600160008083815260200190815260200160002060020160006101000a81548160ff0219169083151502179055503373ffffffffffffffffffffffffffffffffffffffff166108fc600080848152602001908152602001600020600301549081150290604051600060405180830381858888f193505050501580156105cc573d6000803e3d6000fd5b50807fef6b41a20eea0d7e47fdf9e3d520de419390b020d05fa8ab6a6fe4cedf7c7cc6336040516105fd9190610ef8565b60405180910390a250565b6040518060800160405280600073ffffffffffffffffffffffffffffffffffffffff16815260200160608152602001600015158152602001600081525090565b6000819050919050565b61065b81610648565b82525050565b60006020820190506106766000830184610652565b92915050565b6000604051905090565b600080fd5b600080fd5b61069981610648565b81146106a457600080fd5b50565b6000813590506106b681610690565b92915050565b6000602082840312156106d2576106d1610686565b5b60006106e0848285016106a7565b91505092915050565b600073ffffffffffffffffffffffffffffffffffffffff82169050919050565b6000610714826106e9565b9050919050565b61072481610709565b82525050565b600081519050919050565b600082825260208201905092915050565b60005b83811015610764578082015181840152602081019050610749565b60008484015250505050565b6000601f19601f8301169050919050565b600061078c8261072a565b6107968185610735565b93506107a6818560208601610746565b6107af81610770565b840191505092915050565b60008115159050919050565b6107cf816107ba565b82525050565b6107de81610648565b82525050565b60006080830160008301516107fc600086018261071b565b50602083015184820360208601526108148282610781565b915050604083015161082960408601826107c6565b50606083015161083c60608601826107d5565b508091505092915050565b6000602082019050818103600083015261086181846107e4565b905092915050565b61087281610709565b82525050565b600082825260208201905092915050565b60006108948261072a565b61089e8185610878565b93506108ae818560208601610746565b6108b781610770565b840191505092915050565b6108cb816107ba565b82525050565b60006080820190506108e66000830187610869565b81810360208301526108f88186610889565b905061090760408301856108c2565b6109146060830184610652565b95945050505050565b600080fd5b600080fd5b7f4e487b7100000000000000000000000000000000000000000000000000000000600052604160045260246000fd5b61095f82610770565b810181811067ffffffffffffffff8211171561097e5761097d610927565b5b80604052505050565b600061099161067c565b905061099d8282610956565b919050565b600067ffffffffffffffff8211156109bd576109bc610927565b5b6109c682610770565b9050602081019050919050565b82818337600083830152505050565b60006109f56109f0846109a2565b610987565b905082815260208101848484011115610a1157610a10610922565b5b610a1c8482856109d3565b509392505050565b600082601f830112610a3957610a3861091d565b5b8135610a498482602086016109e2565b91505092915050565b600060208284031215610a6857610a67610686565b5b600082013567ffffffffffffffff811115610a8657610a8561068b565b5b610a9284828501610a24565b91505092915050565b7f4e487b7100000000000000000000000000000000000000000000000000000000600052602260045260246000fd5b60006002820490506001821680610ae257607f821691505b602082108103610af557610af4610a9b565b5b50919050565b7f4e487b7100000000000000000000000000000000000000000000000000000000600052601160045260246000fd5b6000610b3582610648565b91507fffffffffffffffffffffffffffffffffffffffffffffffffffffffffffffffff8203610b6757610b66610afb565b5b600182019050919050565b60008190508160005260206000209050919050565b60006020601f8301049050919050565b600082821b905092915050565b600060088302610bd47fffffffffffffffffffffffffffffffffffffffffffffffffffffffffffffffff82610b97565b610bde8683610b97565b95508019841693508086168417925050509392505050565b6000819050919050565b6000610c1b610c16610c1184610648565b610bf6565b610648565b9050919050565b6000819050919050565b610c3583610c00565b610c49610c4182610c22565b848454610ba4565b825550505050565b600090565b610c5e610c51565b610c69818484610c2c565b505050565b5b81811015610c8d57610c82600082610c56565b600181019050610c6f565b5050565b601f821115610cd257610ca381610b72565b610cac84610b87565b81016020851015610cbb578190505b610ccf610cc785610b87565b830182610c6e565b50505b505050565b600082821c905092915050565b6000610cf560001984600802610cd7565b1980831691505092915050565b6000610d0e8383610ce4565b9150826002028217905092915050565b610d278261072a565b67ffffffffffffffff811115610d4057610d3f610927565b5b610d4a8254610aca565b610d55828285610c91565b600060209050601f831160018114610d885760008415610d76578287015190505b610d808582610d02565b865550610de8565b601f198416610d9686610b72565b60005b82811015610dbe57848901518255600182019150602085019450602081019050610d99565b86831015610ddb5784890151610dd7601f891682610ce4565b8355505b6001600288020188555050505b505050505050565b6000604082019050610e056000830185610869565b8181036020830152610e178184610889565b90509392505050565b7f496e76616c6964206974656d2049440000000000000000000000000000000000600082015250565b6000610e56600f83610878565b9150610e6182610e20565b602082019050919050565b60006020820190508181036000830152610e8581610e49565b9050919050565b7f4974656d20616c726561647920636c61696d6564000000000000000000000000600082015250565b6000610ec2601483610878565b9150610ecd82610e8c565b602082019050919050565b60006020820190508181036000830152610ef181610eb5565b9050919050565b6000602082019050610f0d6000830184610869565b9291505056fea264697066735822122082fe592897afd51a53606086e31ff75870a53b7e553dacfdb76bfb6e2325b80c64736f6c63430008130033",
  "linkReferences": {},
  "deployedLinkReferences": {}
}